:020000040000FA
:10000000D10A8704A7057A097A097A09A7040008A2
:1000100087057A097A097A098704000816023800E8
:1000200012022A002A097A09F802130A1702380074
:1000300013022A002A097A09F8021B0AB602B6023C
:10004000F702280A4F041202330012022A002A097A
:10005000000800080A022B006C000A0C8B00030742
:10006000360AAC020A0CAB0003062D0A0B07E704A4
:100070002B07C7044B0705046B0725040C07060470
:100080002C0765044C0745040B06E7052B06C7053E
:100090004B0605056B0625050C0606052C066505B1
:1000A0004C06450500082604460466048604A6049A
:1000B0000A0C8D000307680A4D06650A0D06620AE0
:1000C000A605700AA6052605700AA6054605700A4B
:1000D0000D0626052D0646054D0666056D068605A8
:1000E0000008FF0C3000FF0C3100F002750AF1022D
:1000F000750A0008020C3000010C3100F0027E0A83
:10010000F1027E0A00086F07870A2F056F048F0728
:100110008B0A4F058F042F07930A14022D00120239
:100120002A002909980A4F07980A12022A000E0984
:1001300001024307980A640C2100E802830A070CB5
:100140003000F002A10A5B0C2100320C2800A90249
:100150003C0C89000307CE0A69000809B202AE020E
:100160000F05050C8E000307B70A0F046E003C0C48
:1001700092000307C80AB40272000D0C9400030732
:10018000C30A7400140514022D0012022A00530938
:100190008F05010C3600110C3700830A0F07010987
:1001A000830A6F0071097109710971097109710977
:1001B000D60C0200000C2900340C3200050C34006F
:1001C000000C2E00730075005B0C2100320C28001F
:1001D000000C0500000C0600000C070014022D00A6
:0401E0005309C80AED
:0401E4000008000807
:021FFE00F90FD9
:00000001FF
